:020000041000EA
:1000000000B5324B212058609868022188439860DF
:10001000D860186158612E4B002199600221596106
:100020000121F02299502B49196001219960352056
:1000300000F044F80222904214D00621196600F024
:1000400034F8196E01211966002018661A6600F04E
:100050002CF8196E196E196E052000F02FF8012189
:100060000842F9D1002199601B49196000215960AB
:100070001A491B48016001219960EB211966A021F2
:10008000196600F012F800219960164914480160C1
:100090000121996001BC002800D000471248134993
:1000A000086003C880F30888084703B5996A0420EC
:1000B0000142FBD001200142F8D103BD02B5186610
:1000C0001866FFF7F2FF186E186E02BD00000240BE
:1000D000000000180000070000035F00212200005C
:1000E000F4000018222000A00001001008ED00E03C
:1000F00000000000000000000000000074B24E7A12
:1001000000200420F7010010C3010010C5010010F9
:10011000C1010010C1010010C1010010C101001097
:10012000C1010010C1010010C1010010C701001081
:10013000C1010010C1010010C9010010CB01001065
:10014000CD010010CD010010CD010010CD01001037
:10015000CD010010CD010010CD010010CD01001027
:10016000CD010010CD010010CD010010CD01001017
:10017000CD010010CD010010CD010010CD01001007
:10018000CD010010CD010010CD010010CD010010F7
:10019000CD010010CD010010CD010010CD010010E7
:1001A000CD010010CD010010CD010010CD010010D7
:1001B000CD010010CD010010CD010010CD010010C7
:1001C00000BE00BE00BE00BE00BE00BE00F04BF888
:1001D000103800BEF2EB88718C930710B0930710B3
:1001E0003402001090A31AE700202149086006C8D5
:1001F00081F3088810471F48006800282FD10DA4FC
:100200000ECC002902D000F012F8F9E71A491B4A77
:10021000002000E001C19142FCD1194988471949E9
:1002200088471949884700BEFDE701C901C29A42C3
:10023000FBD37047B0930710C00000207C0600205D
:100240006C99071000000420000004206C9907102E
:1002500000100420001004200000000070470B482C
:100260001CF0BCFE0047EFF30580C0B270470000F1
:1002700008ED00E0000000D080060020A89B0120CF
:1002800085C70110ADA2011075C8011057560000B6
:1002900006005250ABB36053C49207100600525090
:1002A000861C0302D4920710060052505422A29DCD
:1002B000E092071005005250DE65F4686C99071053
:1002C000F8B5C0460448054B10B5834203D0044B33
:1002D000002B00D0984710BD7C0600207C06002033
:1002E0000000000006480749091A8B10C90FC918F9
:1002F00010B5491003D0044B002B00D0984710BD17
:100300007C0600207C0600200000000010B5074C91
:100310002378002B09D1FFF7D5FF054B002B02D026
:10032000044800E000BF0123237010BD980700209F
:1003300000000000D0E10110054B10B5002B03D0E8
:100340000449054800E000BFFFF7CCFF10BDC046E0
:10035000000000009C070020D0E1011010B51BF048
:10036000DDF810BDF0B5CE464746002280B58C4B77
:100370009C7B1A70002C09D18A480222995E0225C2
:10038000425F15002135A94200DCDAE0187F002821
:1003900009D1844D0222995E0226AA5F16004136D9
:1003A000B14200DCAAE02A22995C894600290AD1E0
:1003B0007C4F02215E5E02217D5E21218C46AC4491
:1003C000664500DC76E038255A5D002A0AD1022114
:1003D0005F5E74498C4602268E5F41218846B04498
:1003E000474545DD46255E5D002E3DD102215F5E1D
:1003F0006C498C4602268E5F35218846B0444745BD
:1004000032DC1B36B7422FDD04215F5E61460426D5
:100410008E5F25218C46B444674525DC0B36B742F8
:1004200022DD01265E55002C00D19E73002801D1EB
:10043000013018774946002902D101202A31585449
:10044000002A02D1012138329954FA2109018C463F
:10045000554A136863441360544A138803339BB2AC
:10046000102B00D9102313800CBC90469946F0BD88
:100470002F36B742B6DD04215F5E614604268E5FEB
:1004800031218C46B4446745ACDC1F36B742A9DD48
:10049000FA2189008C4601325A55434D2A6862443C
:1004A0002A60424D2A88013292B2102A6FD82A80DF
:1004B000012297E70F35AE4200DC84E704217D5E20
:1004C00004215E5E2F003137BE4200DD7BE71F3521
:1004D000AE4200DC77E7FA250121AD00AC46995425
:1004E00031490A6862440A6030490A88013292B28E
:1004F000102A50D80A800122914664E72F32914297
:1005000000DC50E70422995E0422AA5E1500113532
:10051000A94200DD47E7914200DA44E7FA200122D0
:100520008000844620491A770A6862440A601F499D
:100530000A88013292B2102A00D9102201200A80C2
:1005400031E70F32914200DC20E70422995E042259
:10055000825E10001130814200DD17E7914200DA1F
:1005600014E7FA200122800084460F499A730A6832
:1005700062440A600D490A88013292B2102A02D8F8
:100580000A80013402E7102201240A80FEE61022CC
:100590002A800F3A26E710220A800F3A914612E786
:1005A000C8530020A44F0020880F0020140A002008
:1005B000F0B5002357464E464546DE462822CF4C2E
:1005C000E0B523700133A3540E32A3540E32A3546A
:1005D0000E32A354A3760222A35EA1B09A460B2347
:1005E000534404930422A35E574602930B330993AA
:1005F000A27B0392237F94469B462A23E35C00223E
:100600000A933823E35C90460E933A21635E13937A
:100610003C21635E14932C21635E10932E21635E54
:100620001193B74B1E6801961E21635E0C93202127
:10063000635E0D931023E05E07901223E55EB14BDD
:10064000A9461900069500256231089012920F9272
:100650000B9205951A78002A25D002201A5E100008
:100660000B3087421FDC049882421CDC0425585F53
:100670000B25AA46029D8244554514DC099DA842DB
:1006800011DC6546002D01D101F08BF95D46002D8E
:1006900001D001F095F90C92012293461D70643649
:1006A0000D900B9205920E339942D3D1059DBA4617
:1006B000002D01D001F070F94346002B01D001F06C
:1006C0009BF90B9B002B01D002F0B9F90F9B002B7B
:1006D00001D002F081F9129B002B06D038230E9A2C
:1006E000E254139B6387149BA387029E0A20350064
:1006F00050440A3508900D95237F0A932A23E35C22
:100700000B933823E75C804B0C973A21625E109282
:100710003C21625E11922C21625E12922E21625E59
:1007200013921E21625E0E922021625E0F921A7851
:10073000002A01D101F0DBF902215A5E11000A31D1
:100740008A4501DD01F0D3F9904201DA01F0CFF9D9
:100750000421585E01000A3181468E4201DD01F01C
:10076000C6F9854201DA01F0C2F9039E002E01D1DB
:1007700001F01EFC0A98002801D101F031FE0B990E
:10078000002901D102F034F8002F01D002F0A0F8C6
:10079000962040008446019910926144884649465B
:1007A0001191012116910C910021069A8C469146D7
:1007B000079A159114911F7005960131987B0028B6
:1007C0002FD01025585F05000A35AA4529DC089D61
:1007D000854226DB12269D5F029E2F000A37BE420D
:1007E0001FDC0D9EAE421CDB059E002E01D101F0E8
:1007F0004FFC0A9E002E01D101F08FFE0B9E002EB1
:1008000001D101F0ECFE0C9E002E0AD19621490088
:100810008B462C39FF399E73D84411951090169150
:100820000C91187F00282FD01E25585F05000A352F
:10083000AA4529DC089D854226DB20269D5F029E75
:100840002F000A37BE421FDC0D9EAE421CDB059E08
:10085000002E01D101F05DFC0A9E002E01D101F0B5
:1008600060FD0B9E002E01D101F027FF0C9E002E93
:100870000AD1962149008B462C39FF391E77D8447E
:100880001195109016910C912A201D5C002D3DD0E1
:100890002C27DD5F2F000A37BA4537DC089FAF42AF
:1008A00034DB2E269F5F0A26B346BB445E4617966E
:1008B000029EB346179EB34528DC0D9EBE4225DB43
:1008C000059E002E01D101F0CBFB0A9E002E01D126
:1008D00001F0C9FC0B9E002E01D101F0FBFE0C9E25
:1008E000002E13D1962149008B462C39FF391E5416
:1008F000D8441197109516910C9107E02C540020C4
:10090000880F0020640A0020600D002038201D5C44
:10091000002D34D03A27DD5F2F000A37BA452EDC90
:10092000089FAF422BDB3C269F5F0A26B346BB44A1
:100930005E461796029EB346179EB3451FDC0D9E7A
:10094000BE421CDB059E002E01D101F095FB0A9EE4
:10095000002E01D101F07AFC0B9E002E01D101F096
:10096000C6FE0C9E002E0AD1962149008B462C39DA
:10097000FF391E54D8441197109516910C914620BA
:100980001D5C002D01D101F04EF848255D5F2F0060
:100990000A37BA4501DD01F046F8089FBD4201DD86
:1009A00001F041F84A27DF5F0A26B346BB445E46A2
:1009B0001796029EB346179EB34501DD01F033F84A
:1009C0000D9EB74201DD01F02EF8059E002E01D0EC
:1009D00001F035FB1E5496235B009C462C3BFF3BED
:1009E000E044B9462A009C4605934146E64B0191F6
:1009F00019606346002B01D001F0DFF9149B002B36
:100A000001D001F0B3FF159B002B01D001F06EFF68
:100A1000169B002B06D038230C9AE254109B638758
:100A2000119BA387237F0A932A23E75C0E330B973E
:100A3000E55C0C953A22A35E0E933C22A35E0F93D5
:100A40002C22A35E10932E22A35E11931E22A35E7E
:100A500012932022A35E1393CC4B1B889946CC4B58
:100A60001A78002A01D101F036F802215A5E1100ED
:100A70000B318A4501DD01F02EF80499914201DA2B
:100A800001F029F80420195E029E08000B3086420E
:100A900001DD01F020F80998884201DA01F01BF825
:100AA000039E002E01D101F0B4F90A98002801D16B
:100AB00001F07CFC002F01D101F09EFD002D01D042
:100AC00001F0FEFE48461D70C835AC460F9101216D
:100AD000013880B281460198159160440C91002143
:100AE00080460E92079A8C46149116910596013114
:100AF000987B002831D01025585F05000B35AA459A
:100B00002BDC049D854228DB12269D5F029E2F0070
:100B10000B37BE4221DC099EAE421EDB059E002E35
:100B200001D101F069FA0A9E002E01D101F0D2FC38
:100B30000B9E002E01D101F034FD0C9E002E0CD135
:100B40004946013989B28946C8218B46C7399E7307
:100B5000D8440F950E9015910C91187F002831D034
:100B60001E25585F05000B35AA452BDC049D8542E8
:100B700028DB20269D5F029E2F000B37BE4221DC22
:100B8000099EAE421EDB059E002E01D101F08CFABB
:100B90000A9E002E01D101F0CDFC0B9E002E01D14A
:100BA00001F00EFD0C9E002E0CD14946013989B290
:100BB0008946C8218B46C7391E77D8440F950E90B9
:100BC00015910C912A201D5C002D36D02C27DD5F5D
:100BD0002F000B37BA4530DC049FAF422DDB2E26A9
:100BE0009F5F0B26B346BB445E461796029EB346F4
:100BF000179EB34521DC099EBE421EDB059E002EDA
:100C000001D101F060FA0A9E002E01D101F049FBEA
:100C10000B9E002E01D101F08BFD0C9E002E0CD1FD
:100C20004946013989B28946C8218B46C7391E54C5
:100C3000D8440F970E9515910C9138201D5C002D0E
:100C400001D100F0F6FE3A27DD5F2F000B37BA45E1
:100C500001DD00F0EEFE049FAF4201DA00F0E9FE94
:100C60003C269F5F0B26B346BB445E461796029E0A
:100C7000B346179EB34501DD00F0DBFE099EBE4280
:100C800001DA00F0D6FE059E002E01D001F0A0F999
:100C9000494601391E548BB29946C8239C46C73B2E
:100CA000E0442A009C460121069705934046364BB6
:100CB000019018606346002B01D001F0BEFA169B2C
:100CC000002B01D001F09AFE149B002B01D001F003
:100CD0008CFE159B002B06D038230C9AE2540E9BF9
:100CE00063870F9BA387002902D04A46274B1A80AF
:100CF0005346033306930C2353449B46029B254DD6
:100D0000DA1C0C330A920B93237F6F1C11932A2356
:100D1000E35CFF3714933823E35C19933A22A35E14
:100D20001E933C22A35E1F932C22A35E1B932E22B4
:100D3000A35E1C93154B1B880E931E22A35E179374
:100D40002022A35E18931222A35E15931393079B90
:100D50001293039B0F93019B0C9300231D931A93F3
:100D60001693109305932B78002B65D006981CF0F2
:100D70006BFD6E6880460849301C1CF0F7FC011CB6
:100D800040461CF047FD09E0880F00205E0A002065
:100D9000400F0020500B00200000604100284BD085
:100DA000FE21301C89051CF0E1FC804658461CF0F1
:100DB0004BFD011C40461CF02DFD00283CD0AB68CB
:100DC0000A9899461CF040FDE049804648461CF0D0
:100DD000CDFC011C40461CF01DFD00282CD0FE213E
:100DE000484689051CF0C2FC80460B981CF02CFD7F
:100DF000011C40461CF00EFD00281DD00F9B002B4F
:100E000001D000F0DFFEC822920094462B700E9BAA
:100E1000301C013B9BB20E930C9B63440C931CF063
:100E200035FD03B2484612931CF030FD03B2139314
:100E3000012310930F9305932035AF4293D1059B67
:100E4000002B01D000F098FE109B002B01D000F089
:100E500077FF169B002B01D001F09DFD1A9B002B04
:100E600001D001F0E3FD1D9B002B06D03823199A19
:100E7000E2541E9B63871F9BA387059B002B02D018
:100E8000B34B0E9A1A802A23257F0E95E65C0E330B
:100E90000F96E35C10933A22A35E12933C22A35E6A
:100EA00013932C22A35E14932E22A35E1693A94BB8
:100EB0001F8805971E22A35E17932022A35E11931D
:100EC000A54B1A78002A01D100F01FFE0221585EBE
:100ED00001000C310C908A4501DD00F016FE8345BF
:100EE00001DA00F04FFE0422985E029A01000C31F4
:100EF0008A4201DD00F046FE0B9A824201DA00F0E0
:100F000041FE039A002A01D100F0D4FF002D01D147
:100F100001F0BFFA002E01D101F019FC109A002A4D
:100F200001D000F02FFEFA2189008C461A70019A38
:100F30007D1C6244ADB2904610210F2D00D8291CB3
:100F40000C9A13901292079A01200C92039A89B27C
:100F5000914601221992109200221B921A92189225
:100F60009D7B002D35D010269D5F2E000C36B2459E
:100F70002FDCAB452DDB12229E5E029A37000C3728
:100F8000BA4226DC0B9AB24223DB4A46002A01D140
:100F900000F0FAFF0E9A002A01D101F03BFA0F9AF5
:100FA000002A01D101F03EFC109A002A11D19A7357
:100FB000FA2292009446013188B2E04410210F28B1
:100FC00000D8011C0122012089B2139612951992B2
:100FD00010921D7F002D35D01E269D5F2E000C36F1
:100FE000B2452FDCAB452DDB20229E5E029A3700F6
:100FF0000C37BA4226DC0B9AB24223DB4A46002A5F
:1010000001D100F0ADFF0E9A002A01D101F016FACD
:101010000F9A002A01D101F077FB109A002A11D112
:101020001A77FA2292009446013188B2E0441021E6
:101030000F2800D8011C0122012089B213961295B5
:10104000199210922A255E5D002E3AD02C27DE5F81
:1010500037000C37BA4534DCB34532DB2E229F5EB5
:101060000C229446BC4462461C92029A94461C9AF6
:10107000944526DC0B9ABA4223DB4A46002A01D16A
:1010800000F0C9FF0E9A002A01D101F0EBF90F9A86
:10109000002A01D101F07CFB109A002A11D15A5587
:1010A000FA2292009446013188B2E04410210F28C0
:1010B00000D8011C0122012089B2139712961992BF
:1010C000109238255E5D002E01D100F0A6FC3A2773
:1010D000DE5F37000C37BA4501DD00F09EFCB345FA
:1010E00001DA00F09AFC3C229F5E0C229346029AA1
:1010F000BB445A4501DD00F090FC0B9ABA4201DA7C
:1011000000F08BFC4A46002A01D000F0EBFF5A5554
:10111000FA239B009C4601318BB2E04410210F2B37
:1011200000D8191C0123994689B215970C9618937B
:1011300040460A4B01901860064B05911980189B98
:10114000002B01D001F0B1FB0AE0C0460000604175
:101150005E0A0020140A0020C80A0020880F002020
:101160001A9B002B01D001F02FFC1B9B002B06D0FB
:101170002A230F9AE254149BA385169BE385199B9F
:10118000002B06D03823109AE254129B6387139BDE
:10119000A387237F00269B462A23E35C10933823F2
:1011A000E35C1493794B197B4A01521A920052184E
:1011B0003A20215ED20019913C20215E2D320F9100
:1011C0002C25605FFF3216902E25605F17901E253C
:1011D000605F12902025605F13901225605F1A9166
:1011E00003990E908946019918008C460021059DAF
:1011F00054301891159111910C910B921978002986
:101200002AD00227D95F0F000B37BA4524DC049F90
:101210008F4221DB04229F5E0B229046029AB84443
:10122000424519DC099ABA4216DB4A46002A01D027
:1012300000F0E6FC1A700B9A013590461022ADB210
:101240001026C444AA4200D92E1C0122B5B29146F0
:1012500001260E9707910C920E338342CED1002EB9
:1012600001D000F09EFC0C9B002B01D001F08FF907
:10127000119B002B01D001F0C9FB159B002B06D060
:101280002A23109AE254169BA385179BE385189B8B
:10129000002B07D03823149AE254199B63871A9BBA
:1012A000A3870F932A223A4B995C002900D1DBE3F4
:1012B0002C20195E08000B30824500DDD4E3049831
:1012C000814200DDD0E32E201E5E029D30000B30F7
:1012D000854200DDC8E30998864200DDC4E31A7840
:1012E000002A01D000F02DFF1020225E904612202F
:1012F000225E14929A7B002A01D000F0AFFD227F7B
:101300000C921E20225E18922020225E15921A7FD7
:10131000002A01D000F091FD2A32A25C0E922C200E
:10132000225E16922E20225E17922A2200209854C6
:10133000962080008446019A164862440192026019
:10134000059A013292B20592102A01D900F01FFFCE
:1013500011480280382201206187A054A6879D5C35
:10136000002D01D100F00EFF00259D540E32A05437
:10137000588F0232A052988F0232A052493A0F96EB
:1013800010921A78002A00D18DE307E0404F002028
:10139000180A0020880F0020140A002002201A5E7C
:1013A00010000A30824500DD7DE30898904200DAA3
:1013B00079E30425585F029E05000A35AE4200DD40
:1013C00071E30D9D854200DA6DE3039D002D01D18F
:1013D00000F0C7FE0C9E002E01D100F0AFFF0E9E64
:1013E000002E01D101F04AFA109E002E01D001F02A
:1013F0006BFA1E702D36FF36B4460F90012001990E
:1014000013906144109000208946110042461190CB
:1014100012900B90079501309D7B002D2FD0102648
:101420009D5F2E000A36B24529DC089EAE4226DBBF
:101430001227DE5F0A27BC46029FB44467451EDCC4
:101440000D9FB7421BDB079F002F01D100F06DFEFF
:101450000C9F002F01D100F033FF0E9F002F01D110
:1014600001F0AAF9109F002F09D1962149008C465E
:10147000012029009F73E1440F96139010901D7F67
:10148000002D2FD01E269D5F2E000A36B24529DC86
:10149000089EAE4226DB2027DE5F0A27BC46029F5D
:1014A000B44467451EDC0D9FB7421BDB079F002F2E
:1014B00001D100F072FE0C9F002F01D100F00DFF52
:1014C0000E9F002F01D101F0EBF8109F002F09D1E2
:1014D000962149008C46012029001F77E1440F9690
:1014E000139010902A255E5DAB46002E35D02C2738
:1014F000DE5F0A27BC46B444E2452EDC089FB742B3
:101500002BDB2E255F5FBC460A2767441997029F95
:101510003D00199FBD4220DC0D9D65451DDB079DEB
:10152000002D01D100F057FE0C9D002D01D100F0DF
:101530001CFF0E9D002D01D101F04BF9109D002DD7
:101540000BD159465D540331FF318B466146012072
:101550000F913100D9441390109038255E5DAB4651
:10156000002E00D155E23A27DE5F0A27BC46B4447C
:10157000E24500DD4DE2089FB74200DA49E23C2532
:101580005F5FBC460A2767440897029F3D00089F9B
:10159000BD4200DD3DE20D9D654500DA39E2079D63
:1015A000002D01D000F005FE58461D5496235B0027
:1015B0009B466346149301233200D9440B9307934F
:1015C0004846E04B019018600B9B002B01D000F0C7
:1015D0002BFE129B002B01D001F09AF9119B002BDE
:1015E00001D001F08CF9139B002B05D03823109A01
:1015F0006187E2540F9BA3871E23E25E267F089239
:101600002022A35E0B931222A35E9C46CE4B1A7837
:10161000002A00D152E202215A5E110013318A459C
:1016200000DD4BE20699914200DA47E20420195EA0
:10163000029D08001330854200DD3FE20A9888428F
:1016400000DA3BE20398002800D1C0E3002E01D06D
:1016500000F01CFF96256D00A94601981E704844B5
:10166000834605981025013086B20F2E00D8051C40
:10167000083212B2083108920AB20B92039A01267C
:10168000079202220E92013A0D920C920022012141
:10169000ADB20F92987B002800D1D0E11022985E65
:1016A000132291468144CA4500DDC8E1069A824270
:1016B00000DAC4E11227DA5F17001322B9464A4460
:1016C0000692029A10971700069A974200DDB6E13B
:1016D0000A9A4A4500DAB2E1079A002A00D0CDE31F
:1016E0009A7396235B009C460135ABB2E344102508
:1016F0000F2B00D81D1C083003B29846109BADB2CA
:1017000008331BB29C4602230D93013B0F930793B2
:101710005A468C4B01921A608C4B05951D800F9B8D
:10172000002B01D001F02AF90C9B002B01D001F015
:1017300011F9039B07935346181D2823217F029A12
:101740008B461E25615F171D03912025615F88462A
:10175000E15C7F4B0A911025615F0B911225615F5F
:101760000C91A17E08911978002900D16BE1022526
:10177000595F0D001435AA4500DD64E1884200DAA6
:1017800061E104269D5F2E001436B24200DD5AE16D
:10179000079AAF4200DA57E1002A00D1A4E35A4683
:1017A000002A00D04FE1FA26F600B0461A70019ADE
:1017B00042449446059A561C10229146B2B20F2A12
:1017C00000D8B1464A46083196B208350AB20392AB
:1017D0002AB29046079A0121069203220A92023AFF
:1017E00093460D9200220E929D7B002D00D137E191
:1017F00010229D5E14229146A944CA4500DD2FE1C6
:10180000854200DD2CE11222985E14229146029A54
:1018100081444A4500DD23E1B84200DD20E1069A1B
:10182000002A00D080E39A73FA23DB009946013640
:10183000B3B2CC4410260F2B00D81E1C08352BB297
:1018400008300B9303B20C9303230893023BB6B208
:101850000E93069362463B4B01921A603B4B0596F2
:101860001E800E9B002B01D001F067F80D9B002B12
:1018700001D001F055F8079B0693237F00260893BB
:101880002A23E35CB4460C933823E35C56460D935D
:101890003A22A35E059F15933C22A35E16932C2249
:1018A000A35E12932E22A35E13931E22A35E0F93B8
:1018B0002022A35E10931022A35E0A931222A35E3D
:1018C000019A0B9390460022149211920E92079265
:1018D0001032934600221F4B914618000397703038
:1018E0001A78002A19D00225595F0D000B35AE4237
:1018F00013DC049D8D4210DB0427DD5F0B27BA4605
:10190000029FAA44574508DC099FAF4205DB022A23
:1019100000D18CE1042A00D1BCE10E339842DFD122
:10192000B2466646039F002E00D043E1079B002B82
:1019300001D000F0D3FF0E9B002B01D001F06EF818
:101940000AE0C046880F0020240F0020140A00205F
:101950001809002070550020119B002B06D02A2367
:101960000C9AE254129BA385139BE385149B002BD6
:1019700006D038230D9AE254159B6387169BA387E4
:10198000DC4B1A78022A00D1CDE021B03CBC904655
:101990009946A246AB46F0BDD74B01961E60FEF7B6
:1019A0008BFE089201221D700E33814690469446AC
:1019B00064360592994201D0FEF74CFEFEF776FEA2
:1019C0000A9D002D0ED00E9D002D01D0FEF76BFE5E
:1019D000139201221D706436149012920E92059299
:1019E000FEF761FE109201221D70643611900F9275
:1019F0000A920592FEF757FE63464A46A373089B78
:101A000062822382624607934B4603920693FEF757
:101A100058FE002800D1D7E5D2E5002801D1FFF714
:101A20008EFBFFF785FB002901D1FEF7E2FFFEF7F1
:101A3000DCFF002901D1FFF73DF9FFF737F9002955
:101A400000D16CE664E6079A0692019A002194465A
:101A500000220D920E929D7B059E002D00D0C7E6C0
:101A6000002900D1FDE6F5E6217F0C91A25C0E92E3
:101A70003822A25C10923A22A15E2C20225E16929D
:101A80002E20225E17921E20225E18922020225EB7
:101A900015921020225E90461220225E14921A782F
:101AA000002A00D07AE442460398079001988146C4
:101AB00000201390119012900B90ADE4039A0792BE
:101AC000019A0021934601220E920D920022059D5B
:101AD0000C920F92DEE5079A0399059101998846C9
:101AE00000218C46159114911691FFF701F8069A82
:101AF00003999146079A05910199884600218C46E1
:101B0000169115911491FEF759FE0198039980469C
:101B10000020079A89460C92059919901B901A90FB
:101B20001890FFF71DFA02215A5E11000B318A4509
:101B300000DD2AE704998A4200DD26E704215A5E87
:101B4000029811000B31884200DD1EE709998A4294
:101B500000DD1AE703221A70FA2292009446019BD4
:101B6000654A63441360059B01339BB2102B00D977
:101B70001023624A138008E70C9B5F4A01931360AD
:101B8000FFF762F9079A39000C92039A00209146F8
:101B9000019A9046002219921B921A921892FFF70E
:101BA000DFF96246544B01921A60544B05951D8033
:101BB000FFF759FB4246504B01921A604F4B059775
:101BC0001F80B3E6119B002B46D1C8229200944699
:101BD0002B700E9B301C013B9BB20E930C9B6344FD
:101BE0000C931BF053FE03B2484617931BF04EFEB6
:101BF00003B218930123169311930593FFF71CF971
:101C00005A46002A5ED11A700B9A0135904610226E
:101C1000ADB21026C444AA4200D92E1C0122B5B28E
:101C200093460126139712911192FFF715FBFA22A2
:101C3000D2009446039FE0440137BAB2102793457F
:101C400000D9171CBAB2039203221A704A469A713D
:101C5000DA710122944660E6149B002B50D1C82211
:101C6000920094462B700E9B301C013B9BB20E934E
:101C70000C9B63440C931BF009FE03B248461B9374
:101C80001BF004FE03B21C9301231A9314930593D3
:101C9000FFF7D2F8069A002A5DD11A70FA22D20014
:101CA0009446039FE0440137BAB21027934500D908
:101CB000171CBAB2039201220B9594460A9107921F
:101CC00006922AE6109A002A5ED11A700B9A013504
:101CD00090461022ADB21026C444AA4200D92E1C50
:101CE0000122B5B217970126169115921092FFF7AF
:101CF000B3FAC046E8550020880F0020140A0020DF
:101D0000199B002B01D0FFF797F8C8229200944648
:101D10002B700E9B301C013B9BB20E930C9B6344BB
:101D20000C931BF0B3FD03B248461E931BF0AEFDAF
:101D300003B21F9301231D9319930593FFF77CF8BA
:101D40000F9B129A1399A3732282618207920393C5
:101D50001591FFF77EF8089A002A00D049E21A7020
:101D6000FA22D2009446039FE0440137BAB210270A
:101D7000934500D9171CBAB20392012210959446DC
:101D80000F910E920892C8E5149A002A01D0FFF72D
:101D900063FA01351A70AEB210321025B24200D982
:101DA000351C0B9A012690460122ADB2C4441A9705
:101DB000199118921492FFF74FFA4B460599228217
:101DC000A1736382039107920693FEF717FE96258F
:101DD0006D00AC4610251870019860448346059844
:101DE000AC46013085B20F2D00D88446083212B2BD
:101DF000083190460AB26046944601220E920132A2
:101E00000D9200220C920132012185B20F920792AD
:101E100040E4C8254846AC4606910021013880B20E
:101E200081460198159160441491169101318046C4
:101E30008C461E700591FEF75BFE002201201A778A
:101E40002A32A0541E201A5E1692A28520201A5E05
:101E50001792E28501220E92FFF767FA00229A7329
:101E60000132227710201A5E1892E28312201A5E45
:101E70001592228401220C92FFF749FA002E00D01D
:101E8000DDE59E7396235B0099460135ABB2CB44EA
:101E900010250F2B00D81D1C083003B20893109B8F
:101EA000012608331BB20B9302230E93013BADB204
:101EB0000C932DE4FA2189008C461A70019A1021A6
:101EC00062449046059A551CADB20F2D00D8291CCE
:101ED000002219921B921A9201321590914601200C
:101EE00089B21892FFF73CF8FA26F600B1461A704C
:101EF000019A4A449446059A561C10229146B2B261
:101F00000F2A00D8B1464A46083196B208350AB2BF
:101F10000B922AB20C920322089200220D920132F7
:101F200001210E9206925FE45A46002A00D097E5FE
:101F30009A73FA23DB0098460136B3B2C4441026E4
:101F40000F2B00D81E1C08352BB20830039303B2A8
:101F5000984603230A93023B9B46B6B20D9379E45D
:101F60001A77FA229200944601318AB2E044102195
:101F70000F2A00D8111C01220120914689B2159622
:101F80000C951892FFF75EF89A73FA229200944625
:101F900001318AB2E04410210F2A00D8111C01221D
:101FA0000120914689B215960C951892FFF711F809
:101FB00096204000844601991E70614488460021A5
:101FC00016911591149101318C460591FEF7F6FB9F
:101FD0000A9E002E00D08CE2494601391E548BB275
:101FE0009946C8239B46C73B0121D84413971295B5
:101FF00016930A93FEF75AFE494601398AB2914672
:10200000C822012194469E73E04402008C46069546
:102010000591FEF7A2FD5A55FA229200944601312D
:102020008AB2E04410210F2A00D8111C012201209D
:10203000914689B215970C961892FFF742F80A9EBE
:10204000002E00D01CE11E5496235B009B462C3BC7
:10205000FF3BD8440F970E9514930A93FEF7C5FCE7
:102060009622520094460121E044B9462A008C464B
:102070001E540591FEF74AFC962252009446012117
:10208000E044B9462A008C461E540591FEF777FCC1
:102090009622520094460121E044A94602008C4653
:1020A0009E730591FEF7BDFB494601398AB2914600
:1020B000C822012194461E77E04402008C46069512
:1020C0000591FEF77FFD494601398AB29146C82243
:1020D000012194461E54E0442A008C46069705913F
:1020E000FEF7ABFD0E9A002A00D003E15A55FA2301
:1020F0009B009C4601318BB2E04410210F2B00D88D
:10210000191C012389B2119717961A930E93FFF7A2
:102110000FF89622520094460121E044A94602009D
:102120008C461E770591FEF7AFFB9622520094462F
:1021300001202A009F73E14414960B900790FFF74B
:102140009EF900221A700132A27302201A5E2282C6
:10215000904604201A5E1492628201220392FFF7D5
:10216000C9F896267600B446149000201D70019D93
:1021700013906544119012900130A9460B9007907E
:10218000FFF74AF901220F961092FFF7FAF8102292
:10219000F04805920280FFF7DDF89622520094463F
:1021A00001202A001F77E14414960B900790FFF757
:1021B00099F90C9D002D00D0E6E058461D54962359
:1021C0005B009B46634615930123D94418961293EE
:1021D0000C93FFF7F5F996225846520093461D548A
:1021E000624601201492D94432000B900790FFF709
:1021F000B4F90C9A002A00D0AEE14A461A70FA22CD
:10220000D2009446039FE0440137BAB210279345A9
:1022100000D9171CBAB20392012213959446129169
:1022200011920C92FFF779FB0798149B9046A073CC
:10223000228263820390FFF7CCF90598069BA07376
:102240002282638207920390FEF739FD96214900AE
:102250008B462C39FF391E54D8440F970E95149194
:102260000A91FEF78CFB962149008B462C39FF39E9
:102270001E54D8440F970E9514910A91FEF746FB11
:102280000B9E002E00D0F9E11E5496235B009B4666
:102290002C3BFF3BD8441397129515930B93FEF7F5
:1022A000A4FB4946013989B28946C8218B46C73902
:1022B0001E54D8441397129516910A91FEF7BDFC4F
:1022C0009620400084462C38FF389F73E1441596D1
:1022D000189512900C90FFF7D2F896204000844693
:1022E0002C38FF381F77E1441596189512900C9002
:1022F000FFF7F8F80F9A002A00D0A7E25A55FA2300
:102300009B009C4601318BB2E04410210F2B00D87A
:10231000191C012389B2169714961B930F93FEF78D
:1023200007FF962149008B462C39FF391E77D84488
:102330000F950E9014910A91FEF7A6FA1590039846
:102340001E709626079000207600B44613901190D8
:10235000013012900C900020019D189265440B9062
:10236000A94642460130FFF757F828005D46585508
:10237000962040008346604615900120D944189667
:1023800012900C90FFF7E9F80E9D002D00D04DE162
:1023900058461D5496235B009B46634617930123C2
:1023A000D944169611930E93FFF70AF913910399E6
:1023B000C8250591002118704846AC461591149126
:1023C000013116910A910021013880B281460198AD
:1023D0001292604480468C46079A0131FEF788FBD2
:1023E000187096204000844601990E9261448846F8
:1023F00049460F910399069A05910021169115916E
:10240000013114910A91002191468C46079A0131BD
:10241000FEF7D4F99A73FA2292009446013188B2F9
:10242000E04410210F2800D8011C0122012089B2AC
:10243000119617951A920E92FEF7CBFD1A77FA2293
:1024400092009446013188B2E04410210F2800D850
:10245000011C0122012089B2119617951A920E9241
:10246000FEF7F0FD5A55FA2292009446013188B2E7
:10247000E04410210F2800D8011C0122012089B25C
:10248000119717961A920E92FEF71BFE0200FFF7A5
:1024900016FBFA2189008C46019A1D706244904611
:1024A000059A1021551CADB20F2D00D8291C0C9A8D
:1024B00011901792079A01200C92039A89B29146C3
:1024C000002219921B9201321A920E920022189247
:1024D000FEF746FD4946013989B28946C8218B4637
:1024E000C7399E73D8441395129016910A91FEF73E
:1024F00034FB0B9E002E00D0ABE0494601391E5440
:102500008BB29946C8239B46C73B0121D8441197FB
:10251000109514930B93FEF7C9FB962149008B4647
:102520002C39FF399E73D8440F950E9014910A915F
:10253000FEF777F94946013989B28946C8218B46A9
:10254000C7391E77D8441395129016910A91FEF759
:1025500039FBC046140A00200D9A002A01D0FFF76B
:10256000DCF91A70FA22D2009446039FE044013746
:10257000BAB21027934500D9171CBAB203920122B0
:1025800016959446159114920D92FFF7C6F94B4695
:10259000A373079B23820E9B63824B460393FEF734
:1025A00067FE4946013989B28946C8218B46C73939
:1025B0009E73D8441195109014910B91FEF7CDFAAB
:1025C0004946013989B28946C8218B46C7391E77E9
:1025D000D8441195109014910B91FEF7F3FA9621BF
:1025E00049008B462C39FF399E73D84413951290BD
:1025F00015910B91FEF715F911910399C8250591D5
:1026000000214846AC461591013114910B910021EF
:10261000013880B2814601981092604416918C4630
:102620008046079A1F700131FEF762FA109D002D57
:1026300001D0FFF7EEF959465D5496235B009B46A7
:1026400063460F9301233100D94413931093FEF78F
:10265000B7FF0C9E002E01D0FFF7EBF94946013978
:102660001E548BB29946C8239B46C73B0121D844D0
:102670000F970E9515930C93FEF718FB0C9E002EEA
:1026800001D0FFF7D0F91E5496235B009B462C3BEC
:10269000FF3BD8441197109516930C93FEF7A5F9BC
:1026A0009620400084462C38FF381F77E144179667
:1026B000169511900E90FEF715FF962149008B4656
:1026C0002C39FF391E77D8441395129015910B9130
:1026D000FEF7DAF8962149008B462C39FF391E5453
:1026E000D8441397129515910B91FEF70FF9962187
:1026F00049008B462C39FF391E54D8441397129544
:1027000015910B91FEF73BF91A77FA229200944645
:10271000013188B2E04410210F2800D8011C0122A9
:10272000012089B2169614951B920F92FEF78AFC2F
:102730004946013989B28946C8218B46C7391E549A
:10274000D8441197109514910B91FEF776FAFA215F
:1027500089008C46019A102162449046059A1E70A9
:10276000551CADB20F2D00D8291C0C9A169014924E
:10277000079A01200C92039A89B29146002219927D
:1027800001321B920F9200221A921892FEF7E8FB78
:102790005A55FA2292009446013188B2E044102141
:1027A0000F2800D8011C0122012089B21697149627
:1027B0001B920F92FEF785FC9620400084462C3831
:1027C000FF389F73E1441796169511900E90FEF70F
:1027D00056FE28005D4658559620400083466046C8
:1027E00017900120D944169611900E90FEF7B5FE71
:1027F00096204000844619700199129261448846DF
:10280000494613910399069A0591002116910131C9
:1028100015910B91002191468C461491079A013134
:10282000FDF7CCFF9A73FA2292009446013188B2E8
:10283000E04410210F2800D8011C0122012089B298
:10284000169614951B920F92FEF7C3FB109A002A5E
:1028500001D0FFF7E2F85A55FA239B009C4601315C
:102860008BB2E04410210F2B00D8191C012389B230
:102870001397129619931093FEF75AFC179003982A
:102880001E709626079000207600B4461390013003
:1028900011900E900020019D1692654412900B90AD
:1028A000A94642460130FEF7B7FD4B46A373159B80
:1028B0000C9A63824B46228203930792FEF750FCE8
:1028C0003100079AFFF709F928004246FFF7EDF8B3
:1028D000069A31009146079AFFF70DF9069BA373FC
:1028E0000A9B23820B9B6382FFF725F82A230B9A0E
:1028F000E254129BA385139BE385FEF789F82A23F4
:102900000E9AE254169BA385179BE385FEF76BFE98
:102910000C9B2377189BE383159B2384FEF75EFEB5
:102920005B462377039BE38343462384079B0693FD
:1029300028230A9AE254FEF7A0FF069BA3730B9B81
:1029400023820C9B63820D9B002B2CD1089BA376CA
:10295000FEF793FF089B2677E3830B9B2384039B5F
:10296000079328230E9AE254FEF7E5FE0A9B23778D
:102970000E9BE3830F9B2384FEF745F8079BA3730D
:1029800043462382634663820C9B002B14D10D9B2C
:10299000A376FEF7D0FE119B2377179BE383189B4A
:1029A0002384FEF75BFA5B462377039BE38343466E
:1029B0002384089BA376BBE7089B2677E3830B9BC6
:1029C00023840D9BA376CCE70E9B2377179BE38391
:1029D000119B2384FEF7C9FB2A230A9AE254109B19
:1029E000A385119BE385FDF776FE2A230B9AE2541B
:1029F000109BA385119BE385FEF76BF90A9B237758
:102A0000129BE383139B2384FEF75EF95B462377D7
:102A1000129BE383139B2384FEF72FFC089B2377F1
:102A20000F9BE383109B2384FEF796FF2A23149ABF
:102A3000E2541B9BA3851C9BE385FEF714FA5B46BF
:102A400023770C9BE3830D9B2384FDF73FFEC04659
:102A5000F0B52F4C4646236880461800D6464F46B0
:102A60002C4AC530C0B590424DD20A00083292B20D
:102A7000A020944642464000824601324046D2B2EF
:102A800091461830244FC0B20E00514502D3413E4A
:102A9000FF3EB6B25A1C226042463602B218BA5CF9
:102AA0001A704B462268551C2560F5187D5D013370
:102AB000DBB215709842F5D1013189B223688C459B
:102AC000E2D15A1C226042461A70256863466A1C8D
:102AD0002260FF221000083BD9170840C0180012DE
:102AE0002870090E20685B1813405B1A451C25608E
:102AF000037023685A1C226018221A7023685A1C1B
:102B0000226008221A701CBC90469946A246F0BD6D
:102B1000600A0020F04E00209C590020F0B5304C97
:102B20004646236880461800D6464F46C6302D4A92
:102B3000FF30C0B590424DD20A00083292B2A020B8
:102B4000944642464000824601324046D2B2914607
:102B50003830254FC0B20E00514502D3413EFF3EF2
:102B6000B6B25A1C226042463602B218BA5C1A70DB
:102B70004B462268551C2560F5187D5D0133DBB29C
:102B800015709842F5D1013189B223688C45E2D1A4
:102B90005A1C226042461A70256863466A1C2260ED
:102BA000FF221000083BD9170840C01800122870F7
:102BB000090E20685B1813405B1A451C25600370E2
:102BC00023685A1C226038221A7023685A1C22601B
:102BD00008221A701CBC90469946A246F0BDC04619
:102BE000600A0020F04E00209C590020F0B5304CC7
:102BF0004646236880461800D6464F4616302D4A72
:102C0000FF30C0B590424DD20A00083292B2A020E7
:102C1000944642464000824601324046D2B2914636
:102C20002230254FC0B20E00514502D3413EFF3E37
:102C3000B6B25A1C226042463602B218BA5C1A700A
:102C40004B462268551C2560F5187D5D0133DBB2CB
:102C500015709842F5D1013189B223688C45E2D1D3
:102C60005A1C226042461A70256863466A1C22601C
:102C7000FF221000083BD9170840C0180012287026
:102C8000090E20685B1813405B1A451C2560037011
:102C900023685A1C226022221A7023685A1C226060
:102CA00008221A701CBC90469946A246F0BDC04648
:102CB000600A0020F04E00209C590020F0B5304CF6
:102CC0004646236880461800D6464F4686302D4A31
:102CD000FF30C0B590424DD20A00083292B2A02017
:102CE000944642464000824601324046D2B2914666
:102CF0003030254FC0B20E00514502D3413EFF3E59
:102D0000B6B25A1C226042463602B218BA5C1A7039
:102D10004B462268551C2560F5187D5D0133DBB2FA
:102D200015709842F5D1013189B223688C45E2D102
:102D30005A1C226042461A70256863466A1C22604B
:102D4000FF221000083BD9170840C0180012287055
:102D5000090E20685B1813405B1A451C2560037040
:102D600023685A1C226030221A7023685A1C226081
:102D700008221A701CBC90469946A246F0BDC04677
:102D8000600A0020F04E00209C590020F0B5464615
:102D9000D6464F462D4C2E4A2368804698182D4A19
:102DA000C0B590424DD20A00083292B2A02094469B
:102DB00042464000824601324046D2B291465030EF
:102DC000254FC0B20E00514502D3413EFF3EB6B280
:102DD0005A1C226042463602B218BA5C1A704B4640
:102DE0002268551C2560F5187D5D0133DBB2157036
:102DF0009842F5D1013189B223688C45E2D15A1C41
:102E0000226042461A70256863466A1C2260FF22CF
:102E10001000083BD9170840C01800122870090E8E
:102E200020685B1813405B1A451C256003702368FB
:102E30005A1C226050221A7023685A1C22600822F1
:102E40001A701CBC90469946A246F0BD600A00204C
:102E500085020000F04E00209C59002010B5154C52
:102E6000237B002B1CD1237A013BDBB22372002B86
:102E700016D123681B78FE2B16D0FD2B02D1636878
:102E800023601B78FF2B0CD00B4A9B00D05A18F004
:102E900017FB23685A1C22605A780233227223607F
:102EA00010BD18F027FBF4E7FD3B237318F022FB5D
:102EB000F6E7C046F04E0020A88B07102B4A10B54D
:102EC000138801339BB21380294B1A88013292B2C6
:102ED0001A801F2219880A40102A2DD9D022802159
:102EE0001206890451611988224A914202D9F022BE
:102EF00052001A80204A1278002A1BD01F4A1278EA
:102F0000012A17D01A88D2235B009A421AD0FFF701
:102F1000A5FF1B4A1368186800280BD004330E2144
:102F200013601AF0B1F880B201281BD0002801D03C
:102F300018F0C6FA012010BDD022802112068904A3
:102F40009161D0E70F4B104A1A605A6003221A723F
:102F500000221A73FFF782FF094A136818680028D5
:102F6000E8D0DBE718F0C6FAE4E7C0469459002041
:102F70009E990120A08C0000944F0020E055002075
:102F8000E4550020F04E0020048B0710030010B51C
:102F90000B431BD000290BDB00282FDB884217DBFB
:102FA0000B02010018001AF047F82A4B185C0EE0DB
:102FB000494209B2002814DB88422BDC00021AF0D7
:102FC0003BF8244B185C4038C0B200E0002010BD34
:102FD00000021AF031F81F4B1B5C4020C01AC0B22F
:102FE000F5E7404203B2994229DC080219001AF0C1
:102FF00023F8184B185C8038C0B2E8E7404203B2AF
:10300000994211DB18021AF017F8124B185C403085
:10301000C0B2DCE70B02010018001AF00DF80D4BEE
:10302000185C4042C0B2D2E7080219001AF004F856
:10303000084B1B5C80204042C01AC0B2C7E7180290
:1030400019F0FAFF034B1B5C40204042C01AC0B28B
:10305000BDE7C04600E40110F0B545465746DE46E0
:103060004E46E0B59A465343394D83B080460191B0
:103070000800296894460533364ACB1893425FD23C
:103080005346002B39D0424600230132D2B200927F
:10309000624699464133FF339B4642442E4BD2B29F
:1030A0000700584502D3413FFF3FBFB26446002CA2
:1030B00015D04C1C2C6044463F023C191C5D0C7022
:1030C00064460099012C09D92C68661C2E607E1874
:1030D0009E5D0131C9B226709142F5D129684C46F6
:1030E00001340130E4B280B2A24501D0A146D7E755
:1030F000019B01334B449BB201934B1C2B60434615
:1031000052460B702C68019B991A631C2B60FF239D
:103110001800CA171040401800122070120E2868BC
:1031200089180B409B1A441C2C6003702B685A1C96
:103130002A6062461A702B685A1C2A6052461A701E
:1031400003B03CBC90469946A246AB46F0BDC04693
:10315000600A0020F04E00209C590020F0B51F00AE
:10316000A0230500160083B05B00994212DB4139B1
:10317000FF398CB23B00320021002800FFF76CFFC2
:10318000089B3200009321003B00280018F04EF904
:1031900003B0F0BD002901DA4131FF318CB2E9E71B
:1031A0006649674B0A88F0B51A80D0231B065B6816
:1031B0003F20DB439CB203400B809343614A138062
:1031C000614A1578002D4FD06049097801294BD00C
:1031D0000F2121400C2903D85D48890041588F46B2
:1031E000002100201181518154880019948800B277
:1031F00009198CB209B250809180172800DD8EE049
:1032000018205080732964DC742174249180102B61
:1032100067D0202B28D1012D26D14E4B1A78002AB9
:1032200000D186E09A7B002A00D184E01A7F022632
:10323000002A19D1484A4949A02711600122F50006
:10324000A91B49005A54464A591812884880A218A6
:1032500092B2D01C00B27F00B84266DC8880AA1B04
:1032600052009B1830345C81F0BD0021118102397D
:10327000518100203B49B7E70221494211810021D9
:1032800038485181B0E7022111810439518102206F
:103290003449A9E700211181023100205181A3E7BF
:1032A00002214942118104312E4851819CE70221BB
:1032B00002201181518197E70221494211815181F8
:1032C0002849080090E70221118100210220518144
:1032D0008AE784267600B14299DD34009680102B6F
:1032E00097D1012DC0D1204A1378002BBCD11F4BA0
:1032F000157002215C5E1E4954800420185E4C80CB
:103300008880A021164B49001B881B189DB21BB258
:1033100093808B42A8DD413DFF3D9580A4E7D828EE
:1033200000DC6FE7D82050806CE73E3AFF3A8A8095
:1033300095E700267EE701267CE7C046D64F0020B1
:10334000D44F00209C0E0020944F0020E055002018
:10335000D0E10110D8560020E4550020008D071060
:103360006C100020FEFF00001C540020605500205F
:10337000C8530020F8B557464E464546DE46E0B5F0
:10338000C14DC24F2C88660033199B00FA180421E6
:10339000515EBF4A128891424DDB4FD03CBC9046F3
:1033A0009946A246AB46F8BDBA4B1A78002A00D11E
:1033B0009AE39A7B002A00D194E31A7F002A00D175
:1033C0008EE32A229A5C002A00D1B5E338229A5C67
:1033D000002A00D1A8E346229A5C002A00D1A1E38A
:1033E00054229A5C002A00D1A0E362229A5C002A4F
:1033F00021D107320120D1003619B600891A4900BF
:10340000BF1958547E88F88859181030F600801972
:103410004880A14839890088A026091889B2080087
:103420002130FF3000B27600B04200DD02E30E2111
:103430004A439B18988001342C80AFE7FB5A202B1D
:10344000F9D8964A9B00D3589F463619B600BF1943
:103450000A22BB5E924A012B00D1F1E29149138806
:1034600009885B189BB27F2B00D97F231380E2E78A
:1034700000228D4B1A708A4A138802339BB27F2B2D
:10348000F4D940231380D6E701223619864BB600C3
:10349000BF191A70FA881A813A895A81CBE700223B
:1034A000824B5A7304321A70C5E701227F4B1A709F
:1034B000C1E701227E4B36191A700022B600BF19EF
:1034C0005A817A899A81B6E77A4B01221A700022D2
:1034D0005A619A613619B600BF197A891A77AAE734
:1034E000754BF2E7754BF0E7754BEEE7754B984679
:1034F000012342463619B600BF1913700823F85E3F
:103500001AF0A2F9434642461861002353619361C1
:103510007B8913778FE76C4BD7E76C4BD5E76C4B08
:10352000D3E701226B4B36191A7000229A61DA61D7
:103530002022B600BF19798999547CE7664BD6E7FB
:103540000221664B1A788A43042A00D173E70322CA
:103550005E31198121391A7059819A7341311A7774
:103560009D32D9829A842139213A1983DA8462E71B
:1035700002225A4B1A709A731A775CE70122574B52
:103580001A704F325A80D0329A8054E70122534B3E
:103590009A734F321A82D0325A824CE7504A514BBA
:1035A00001211360536003231372002313734B4AEA
:1035B00011774F31D183D03111844B4AF6395354AE
:1035C0000E3153540E31137093731377535432E703
:1035D000464B98461B78002B00D02CE7424601331F
:1035E000137033199B00FB185C88E400A6B2DC88DA
:1035F0001AF07EFD3C2119F047FD42461034A4B27A
:103600004B1CA4191B192C88538063001B199B00A9
:10361000214AFF1812883B89A0219B189BB21A00EF
:103620002132FF3212B249008A4200DD35E24346C0
:103630009A8000E72E4B1A78002A00D15CE29A7B30
:10364000002A00D0F7E601210E224A4301219954B5
:103650009B180C226243BF187A88F988D200103177
:1036600052180D495A8009883A89A020521892B2FE
:1036700011002131FF3109B24000814200DCDDE15F
:10368000203A9A80D7E6C0467008002088230710A9
:1036900002570020705500206C10002004E2011039
:1036A0005E0A0020140A0020500D0020100B00209C
:1036B000045700208C0F0020004F0020A00E002097
:1036C00080540020D84F0020B40D0020F855002071
:1036D000E8520020500C002034090020A44F0020A4
:1036E000F04E0020888B0710C8530020E8550020BA
:1036F00018090020D84B1A78002A00D1ECE19A7BF7
:10370000002A00D097E601210E224A430121995454
:103710009B180C226243BF18FA8879881032C900BE
:103720009EE7CE4B1A78002A00D1C3E19A7B002A8B
:1037300000D1C1E11A7F002A00D1C1E12A229A5C9E
:10374000002A00D1BAE138229A5C002A00D072E641
:103750000422FFE0C24B98461B78002B00D1D1E138
:1037600020234246D35C002B00D1C9E14023D35C27
:10377000002B00D1C2E16023D35C002B00D1C3E158
:103780008023D35C002B00D1C6E1A023D35C002BA7
:1037900000D1BFE1C023D35C002B00D1B8E1E0230E
:1037A000D35C002B00D046E607335B0199464246C6
:1037B00049460123535433199B009A46BA44534651
:1037C0000220185E5346C34606229B5EC000C01806
:1037D000CB4410301AF038F85B465860A14B0020FB
:1037E000185E5346213008229B5EFF30C0181AF045
:1037F0002BF89D4982461AF01DF8002800D045E1BB
:103800005B4652469A6043464B4463E6974B1A78B0
:10381000002A00D15EE19A7B002A00D158E11A7F8C
:10382000002A00D15AE12A229A5C002A00D181E1C3
:1038300038229A5C002A00D17AE146229A5C002A5A
:1038400000D0F8E505320120D1008A46891A4900E6
:1038500088465854311989008C46BC4460466146FC
:1038600040889844C00081464046C9881031494488
:1038700041807C4861460088098984469020400048
:103880006144844689B28C44604600B28446A020DC
:103890004000844500DD04E10E2160465143591883
:1038A0008880514686E0724B1A78002A00D18FE05A
:1038B0009A7B002A00D105E11A7F002A00D105E198
:1038C0002A229A5C002A00D1FEE038229A5C042168
:1038D000002A00D0AFE50120CA003619B600521AFE
:1038E000BF1952009854FE8878881036C00080199D
:1038F0009A1850805B483A890088A026121892B224
:1039000010002130FF3000B27600B04200DDB7E099
:103910000E2251435B1898808DE5564B1A78002A89
:1039200000D1C7E09A7B002A00D1C5E01A7F002AA7
:1039300000D1C5E02A229A5C002A00D1BEE03822DC
:103940009A5C002A00D103E746229A5C002A00D044
:1039500071E505320120D1008B46891A490058547F
:103960008846311989008C46BC446046C08861464F
:10397000814610208246984440464988D144C90077
:10398000494441803748614600880989844690202F
:1039900040006144844689B28C44604600B284464B
:1039A000A020400084454FDC0E2160465143591849
:1039B0008880594636198A1AB6005200BF199B18DA
:1039C0007A891A7337E52C4B1A78002A00D06FE7F2
:1039D000002180E7294B1A78002A00D18AE09A7BDF
:1039E000002A00D184E01A7F002A00D17EE02A223A
:1039F0009A5C002A00D189E038229A5C002A00D122
:103A00008EE046229A5C002A00D187E054229A5C1C
:103A1000002A00D00FE506320120D1003619B60089
:103A2000891A4900BF195854FE8878885918C0006F
:103A30001036ECE40E20424320399B189980FAE4BA
:103A4000138801339BB20EE50E20504384469C44FC
:103A5000604620398180ACE7240F0020180A00203E
:103A6000500B00206C1000200000A043404F0020AD
:103A7000C80A0020600D0020400F0020640A0020CA
:103A80000E204143203A5B189A80D4E450462B49DB
:103A900019F069FE5B469860B5E64246203B93808C
:103AA000C9E40E20504384469C44604620398180FE
:103AB00051467FE700224DE701224BE7032249E709
:103AC000022247E7012106E7032104E7022102E77A
:103AD0000122B8E60022B6E6002115E60222B2E68F
:103AE000022287E4012285E4002283E4022293E794
:103AF000012291E700228FE70021A5E5022354E689
:103B0000012352E6002350E603234EE6032283E717
:103B100006234AE6052348E6042346E605227BE71A
:103B2000042279E7052265E4042263E4062261E4C5
:103B3000042288E6032286E603225BE40000A04319
:103B4000F0B5DE46454657464E46FE21D64BE0B51B
:103B50004701DC199846E38995B00133A069E381F8
:103B6000890519F003FED14B217F9946CB005B1AE2
:103B70009B005B18A061E07F4B441A561B185B78D2
:103B800060685BB21293119219F0B2FEC5B2A068E0
:103B900019F07CFEA02300B25B00984200DA4EE1EF
:103BA00001004139FF3989B2C14BC24A1868841DEE
:103BB000FF34944200D3FCE06A1CD2B20292AA1CE9
:103BC000D2B20392EA1CD2B204922A1DD2B205925A
:103BD0006A1DD2B20692AA1DD2B20792EA1DD2B2D3
:103BE00008922A000832D2B209922A000932D2B2CF
:103BF0000A922A000A32D2B20B922A000B32D2B2B7
:103C00000C922A000C32D2B20D922A000D32D2B29E
:103C10000E922A000E32D2B20F922A000F32D2B286
:103C200010920A00103292B29446A02252000E0066
:103C30009246A14C139100E018683200564502D319
:103C4000413AFF3A92B21202411C19605119615C6B
:103C5000013601701868B6B2411C196002998B4692
:103C600093445946615C01701868411C19600399BE
:103C70008B4693445946615C01701868411C196079
:103C800004998B4693445946615C01701868411C45
:103C9000196005998B4693445946615C0170186818
:103CA000411C196006998B4693445946615C01702A
:103CB0001868411C196007998B4693445946615C0A
:103CC00001701868411C196008998B469344594645
:103CD000615C01701868411C196009998B46934416
:103CE0005946615C01701868411C19600A998B463D
:103CF00093445946615C01701868411C19600B9926
:103D00008B4693445946615C01701868411C1960E8
:103D10000C998B4693445946615C01701868411CAC
:103D200019600D998B4693445946615C017018687F
:103D3000411C19600E998B4693445946615C017091
:103D40001868411C19600F998B4693445946615C71
:103D500001701868411C196010998B465A44A25C86
:103D60000270664500D067E71A68103E501C186064
:103D700015701A68F017944601321A60FF22140079
:103D8000924662460440A419241214701C68000E66
:103D9000621C1A60524636183240121A22701A6893
:103DA0001399501C1860102010701A68541C1C6065
:103DB0001070424B102200932800102317F036FB9E
:103DC0004346DC19667F002E40D0119BDA179D1800
:103DD000129B5540D91758184840EAB2C3B2150093
:103DE0009A469A423ADC227FA377D500AD1AAD00FD
:103DF000AD180122E37F4D449B46EB189A56D0172D
:103E0000801AC00FD20F801A19F01EFD5B46606148
:103E1000E85619F019FD051C504619F015FD011C56
:103E2000281C19F0A6FC20614346DB19DA7F013E0D
:103E30000232DA775E7742460323D35507E0002843
:103E400030DA01004131FF3189B2ADE6DE5515B0FF
:103E50003CBC90469946A246AB46F0BDE37FA277B4
:103E60009A46227FD3009B1A9B009B1899444B468D
:103E700052469A56D017801AC00FD20F801A19F0E6
:103E8000E3FC4B46206101205344185619F0DCFC3A
:103E90008146280019F0D8FC011C484619F069FC3D
:103EA0006061C1E781B27FE6500B0020B4160710B5
:103EB000600A0020F04E00209C59002020F10110E3
:103EC000F0B54746CE46C94C80B5C94F2500B84627
:103ED000C84E83B05435237B072B2AD89B00F35858
:103EE0009F462378032B00D1FEE000D9A5E0012BEB
:103EF00000D1A5E0022B1CD19A2263895200013324
:103F00001BB26381934200DA3BE1002323700E343D
:103F1000AC42E0D103B00CBC90469946F0BD23788A
:103F2000022B00D1AEE0032B00D19DE0012B00D18C
:103F300086E00E34AC42CED1ECE72378012B00D1E1
:103F40007EE0022BF5D19A226389520001331BB225
:103F500063819342D9DA0423E15E0323A078A27936
:103F60001340A34A1B029B18009310221023FFF753
:103F7000F5F8A021A2884900531C1BB28B4200DD3A
:103F80002FE1A380638901336381E3790133DBB2DD
:103F9000E3715B08A371CCE72378032B00D1B1E078
:103FA00047D8012B4CD0022BC3D19A2263895200EF
:103FB00001331BB26381934200DBD1E00423E15E55
:103FC000032399464A46A379A0781340884A1B02E6
:103FD0009B18009310221023FFF7C0F88649022295
:103FE0008B5E0220225E10000B30834203DC0B3319
:103FF0009A4200DC08E16289A020A18840004B1CA5
:104000001BB2834200DDFBE0A38001326281BCE78A
:104010002378012B1BD0022B8BD19A22638952006B
:1040200001331BB26381934200DA82E700232370DD
:104030006DE7042B00D186E77BE7042BEDD078E712
:10404000022323700023E371A371638171E7684B3E
:10405000A188A07810220093102317F0E7F902231B
:1040600023700023638164E79A2162894900013249
:1040700012B262818A4200DB47E70422A15EA07887
:10408000A2796DE79A226389520001331BB26381E2
:10409000934200DB39E70423E15E554BA078102200
:1040A00000931023FFF75AF8544902228B5E022036
:1040B000225E10000B30834200DD3AE70B339A4258
:1040C00000DD36E704228B5E0A21625E981C110037
:1040D0001239884200DB2CE7223A0C339A4200DD89
:1040E00027E70323237024E76389A18801336381D1
:1040F0003F4BA07810220093102317F097F9042368
:10410000237016E722890A20215E013A12B2228129
:104110008A1A2C2A0EDD0422A15EA279A07813400F
:104120001B024344009310221023FFF717F80423C7
:104130002370FEE60422A15EA279A07813401B0240
:10414000DB19009310221023FFF708F8A388013B26
:10415000A380E379013BDBB2E3715B08A371E8E67E
:104160000423E15E0323A279A0781340204A1B02B6
:104170009B18009310221023FEF7F0FF00232370FA
:10418000C5E60423E15E032399464A46A379A07855
:104190001340174A1B029B18009310221023FEF7AE
:1041A000DDFF164902228B5E0220225E10000B30DA
:1041B000834200DDDDE60B339A4200DDD9E60422BE
:1041C0008B5E0A21625E981C11001239884200DB66
:1041D000CFE61D3A0C339A4200DDCAE64B46237007
:1041E000C7E6403AFF3AA280CCE6C046404F0020E6
:1041F0002005021088E201101C54002060550020A8
:104200004039FF39A18000E704228B5E0421625E01
:1042100011000B318B4200DDEDE60B339A4200DDDD
:10422000E9E64B46628923702281E5E6F0B5DE4679
:104230004E4657464546C84BE0B59946C74B4C4697
:104240009B4687B00FE0022B09D198226389520068
:1042500001331BB26381934201DD00232370C04B05
:104260000E349C420FD02378032B2AD012D8012B76
:10427000E9D1022323700023A371E3716381B84B5A
:104280000E349C42EFD107B03CBC90469946A24602
:10429000AB46F0BD042BE2D190226389520001337A
:1042A0001BB26381934200DA9FE000232370AD4B81
:1042B000013AA188A078FF3A0093202317F0B6F8BE
:1042C000CDE7638901336381E379002B00D0D4E02B
:1042D000A54BA64A1A60A64AA37890469C4604239A
:1042E000E15EA3799B0243440593A0235B009942BE
:1042F00000DA0FE14139FF398BB204935B461E6847
:104300009C4B9D4AF31893425ED26346049A013354
:10431000DBB2994610006346A025203020336D00A3
:1043200080B2DBB2AA466746C846A4461D003400E8
:10433000814692491600524502D3413EFF3EB6B235
:104340005846631C36020360BB19CB5C0392237092
:10435000434658465A460068441C1460F4180C5DE5
:104360000133DBB204709D42F3D1039A013292B261
:10437000914502D05B461C68DCE75B4659461B68EA
:1043800048465A1C0A601F700D6820386B1C0B6071
:10439000FF231900C2171140091809122970594644
:1043A0005E46120E0968801803409B1A4D1C35604A
:1043B0000B70336864465A1C32602022BC461A7067
:1043C0003368591C31601A70059B6046202204999D
:1043D0000093202317F02AF8E07905210130C0B2BC
:1043E000E07118F051FEA07139E7A3789C460423D0
:1043F000E15EA0235B00994200DB92E0002901DA34
:104400004131FF318BB20393544B5A4A18688118DB
:10441000594A914200D390E0039DE0462A002032A1
:1044200092B2914662460132D2B292466246203240
:10443000D2B21700A4465149A0222E005200954244
:1044400002D3413EFF3EB6B2421C1A6042463602DB
:1044500092198A5C027052461868441C1C60B41899
:104460000C5D0132D2B204709742F5D10135ADB284
:10447000A94500D184E01868DEE7182B00D02AE7B0
:104480000023A371E37104332370A3789C460423B3
:10449000E15EA0235B00994258DA002901DA41313C
:1044A000FF318BB203932D4B324A18688118324A80
:1044B000914242D2039FE0463A00203292B29246A5
:1044C00062460132D2B2914662462032D2B2160022
:1044D000A4462A49A0223D005200974202D3413D02
:1044E000FF3DADB2421C1A6042462D0252198A5C51
:1044F00002704A461868441C1C60AC180C5D0132FE
:10450000D2B20470B242F5D10137BFB2574564D080
:104510001868DFE7002901DA4131FF318BB20493DB
:10452000ECE64139FF398BB203930C4B114A186802
:104530008118114A914200D26EE70A4B2022009363
:1045400060462023039916F071FF88E64139FF3950
:104550008BB20393A7E7C04670550020600A002085
:10456000E055002020420210E4550020C88E0710BC
:10457000202E021005040000F04E00209C5900205F
:104580001A684846511C1960414611701E686446FD
:10459000721C1A60FF221500C4462038C1170D4056
:1045A0002D182D123570090E1D68401802406E1C22
:1045B000521A1E602A701A68511C1960202111704D
:1045C0001A68501C1860124B11706046009320222C
:1045D0002023039916F02AFF41E61A68203F511C58
:1045E0001960414611701D68F9176A1C1A60FF2294
:1045F00010000840C01900122870090E18687F18B2
:104600003A40451C521A64461D60C4460270D2E707
:1046100020420210F0B5DE4657464E464546E0B50C
:10462000AC4A91B01378052B0CD8AB499B00CB5802
:104630009F46AA490B7801330B70A94BA949196011
:104640000023137011B03CBC90469946A246AB467D
:10465000F0BD0223137000235381F3E7982153899F
:10466000490001331BB253818B42EBDDE8E75389EC
:104670009D49013353819A4B196004231370E1E77C
:104680009A215389490001331BB253818B420ADBC3
:1046900000231370954B918890780093102210237B
:1046A00016F0C4FECEE70423D15EA02390785B0011
:1046B000994200DB08E1002901DA4131FF318BB278
:1046C0000F938B4B8B4A1D68A91DFF31914200D37C
:1046D000F2E0421CD2B29146821CD2B20392C21CBA
:1046E000D2B20492021DD2B20592421DD2B20692FB
:1046F000821DD2B20792C21DD2B2089202000832C5
:10470000D2B2099202000932D2B20A9202000A32EF
:10471000D2B20B9202000B32D2B20C9202000C32D7
:10472000D2B20D9202000D32D2B2904602000E3289
:10473000D2B207009446A0220F9C0F372600FFB28A
:104740005200BB4692464A461036B6B24746B1467C
:10475000D84669490E9200E01D682200544502D3F4
:10476000413AFF3A92B212026E1C1E6016188E5D1C
:1047700001342E701D68A4B26E1C1E600E9E961928
:104780008E5D2E701D686E1C1E60039EB3469344A2
:104790005E468E5D2E701D686E1C1E60049EB346C4
:1047A00093445E468E5D2E701D686E1C1E60059ED5
:1047B000B34693445E468E5D2E701D686E1C1E606F
:1047C000069EB34693445E468E5D2E701D686E1C39
:1047D0001E60079EB34693445E468E5D2E701D6834
:1047E0006E1C1E60089EB34693445E468E5D2E701E
:1047F0001D686E1C1E60099EB34693445E468E5D26
:104800002E701D686E1C1E600A9EB34693445E4661
:104810008E5D2E701D686E1C1E600B9EB346934409
:104820005E468E5D2E701D686E1C1E600C9EB3462B
:1048300093445E468E5D2E701D686E1C1E600D9E3C
:10484000B34693445E4693468E5DE3442E701D68E6
:104850006E1C1E60D6198E5D42442E701D686E1C43
:104860001E605E468E5D2E701D688A5C6E1C1E602A
:104870002A704C4500D06FE71A68103C511C196033
:1048800010701E68E117721C1A60FF2215000D409F
:104890002D192D123570090E1D6864182240521A08
:1048A0006E1C1E602A701A68511C1960102111704C
:1048B0001A68541C1C6011700C4B102200930F9945
:1048C000102316F0B3FDBDE64139FF398BB20F93CB
:1048D000F7E6C046E8550020A8E201104C0D002084
:1048E000E4550020BC8F0710C88E0710202D021041
:1048F000600A0020F04E00209C590020F8B5CE46FA
:1049000047462F4B80B598462E4C0420185EA6696A
:10491000083018F099FF311C18F025FF18F0B6FF89
:10492000434605B20220185E6768063018F08CFF17
:10493000391C18F018FF18F0A9FF290000B2FEF783
:1049400025FB214B02009946FF23403213404A4683
:104950005B000500985E18F077FF1C4918F01DFFFA
:10496000EE21890518F019FF4B466D002061804645
:10497000E85E18F069FF154918F00FFFEE21890570
:1049800018F00BFF2200012360611C3203E00133A9
:104990001C32142B0FD011780029F8D1DA00D31A69
:1049A000A1689B00E2189160414657601161506117
:1049B00096610122E2540CBC90469946F8BDC0466F
:1049C000944F0020B850002004E501100000404042
:1049D000F0B546464F46D646684CC0B5684F2600EF
:1049E000B846684D82B054362378052B17D89B0003
:1049F000EB589F466389A18801336381E379A078EE
:104A0000013BDBB2E3711B02DB1900931022102380
:104A100016F00CFDE379002B01D1023323700E3424
:104A2000B442E1D102B01CBC90469946A246F0BD0A
:104A30006389A18801336381E379A0780133DBB214
:104A4000E3711B02434400931022102316F0EEFC86
:104A5000E379032BE3D14C4B99460223E05E05300A
:104A600018F0F2FE4B4658600423E05E053018F063
:104A7000EBFE4B4698600A23E05E18F0E5FE4B46DD
:104A80009861FFF73BFF05232370C8E76389013373
:104A900063810023E37104332370C0E7384BA1889E
:104AA000A07810220093102316F0C0FC022323707C
:104AB00000236381B3E7638901331BB299466381A5
:104AC00098235B00994515DD00232370237B9A46CC
:104AD000022B3ED05346032B1BD0012B9FD119F044
:104AE00007FB502118F0D0FA5131894597D10323A3
:104AF000237094E7237B9A46022BEBD119F0F8FA46
:104B0000322118F0C1FA3D31894524D103232370A5
:104B100021E019F0EDFA1E2118F0B6FA3D31894571
:104B200029D00A22A35E994619F0E2FA1E2118F054
:104B3000ABFA793189451BD00A22A35E994619F058
:104B4000D7FA1E2118F0A0FAB531894500D066E7E2
:104B5000CDE719F0CDFA0A22A35E994619F0C8FAFA
:104B6000322118F091FA9731894500D057E7BEE716
:104B700003232370E0E753462370D2E7600D002043
:104B800020290210C0E20110B8500020F0B5002327
:104B900057464546DE464E46E0B51D00CA4F93B027
:104BA0003B78052B00D970E1C84A9B00D3589F463B
:104BB000FE21FB89B8690133FB81890518F0D6FD18
:104BC0003B7B8146013BDBB2396978683B73984691
:104BD00018F0CCFD7B69B9687860061C181C9A46F1
:104BE00018F0C4FD5146041CB860484618F0BEFDDC
:104BF000B749B861201C18F01DFE002805D0201C04
:104C0000B34918F0B0FD041CB8600021201C18F056
:104C1000FBFD002805D0201CAD4918F0A7FD041CA1
:104C2000B860301C18F064FEC6B2201C18F02EFECE
:104C30004346A84A1B029B181193A02300B25B00B5
:104C4000984201DA00F04BFC4138FF3883B21093F0
:104C5000A14BA24A1868811DFF31914200D3FEE0AA
:104C6000721CD2B20B92B21CD2B20C92F21CD2B213
:104C70000D92321DD2B20E92721DD2B20292B21DAC
:104C8000D2B20392F21DD2B2049232000832D2B2F2
:104C9000059232000932D2B2069232000A32D2B202
:104CA000079232000B32D2B2089232000C32D2B2EA
:104CB000099232000D32D2B2914632000E32D2B297
:104CC0000A9232000F32D2B2A0219046109C4900C5
:104CD00022008A4639004746A8464D46103292B215
:104CE000944689467E4A0F9500E018682100544595
:104CF00002D34139FF3989B20902451C1D608D1963
:104D0000555D013405701868A4B2451C1D600B9DEB
:104D1000AB468B445D46555D05701868451C1D60AB
:104D20000C9DAB468B445D46555D05701868451C6F
:104D30001D600D9DAB468B445D46555D0570186842
:104D4000451C1D600E9DAB468B445D46555D057050
:104D50001868451C1D60029DAB468B445D46555D41
:104D600005701868451C1D60039DAB468B445D466D
:104D7000555D05701868451C1D60049DAB468B444D
:104D80005D46555D05701868451C1D60059DAB4668
:104D90008B445D46555D05701868451C1D60069D79
:104DA000AB468B445D46555D05701868451C1D601B
:104DB000079DAB468B445D46555D05701868451CE4
:104DC0001D60089DAB468B445D46555D05701868B7
:104DD000451C1D60099DAB468B445D46555D0570C5
:104DE0001868451C1D600F9D6D18555D057018688D
:104DF000451C1D600A9DAB468B445D46555D791888
:104E000005701868515C451C1D600170644500D038
:104E10006BE71A684546511C196016701A68103CF9
:104E2000944601321A60FF22100090466246E11754
:104E300008400019001210701868090E421C1A6010
:104E4000424664182240521A02701A684F46511C9A
:104E50001960102111701A68501C18601170119B94
:104E60001022009330001023109916F0DFFA3B7BDC
:104E7000002B01D103333B70BB7F013BDBB2BB771F
:104E8000002B02D12800FEF75BFE0135EDB2203782
:104E9000082D00D084E613B03CBC90469946A2464B
:104EA000AB46F0BD02233B7000233B73FB81002324
:104EB0003A7FBB61D3009B1A9B009B18094A9B5CFD
:104EC0007B770123FB77E0E7500B0020D8E201104D
:104ED0000000A04320F10110600A0020F04E0020E5
:104EE0009C590020B4160710FE21FB89B8690133D4
:104EF000FB81890518F03AFC3B7B81460133DBB22C
:104F0000396978683B73984618F030FC7B69B9685A
:104F10007860061C181C9A4618F028FC5146041CA0
:104F2000B860484618F022FCF249B861201C18F01D
:104F300081FC002805D0201CEE4918F014FC041C4C
:104F4000B8600021201C18F05FFC002805D0201C50
:104F5000E84918F00BFC041CB860301C18F0C8FCC1
:104F6000C6B2201C18F092FC4346E34A1B029B1871
:104F70001193A02300B25B00984200DAA1E241380D
:104F8000FF3883B21093DD4BDD4A1868811DFF3175
:104F9000914200D3FEE0721CD2B20392B21CD2B294
:104FA0000492F21CD2B20292321DD2B20592721D4C
:104FB000D2B20692B21DD2B20792F21DD2B20892BC
:104FC00032000832D2B2099232000932D2B20A92C9
:104FD00032000A32D2B20B9232000B32D2B20C92B1
:104FE00032000C32D2B20D9232000D32D2B2914662
:104FF00032000E32D2B20E9232000F32D2B2A02163
:105000009046109C490022008A4639004746A8462F
:105010004D46103292B294468946BA4A0F9500E046
:1050200018682100544502D34139FF3989B2090279
:10503000451C1D608D19555D013405701868A4B2BA
:10504000451C1D60039DAB468B445D46555D057058
:105050001868451C1D60049DAB468B445D46555D3C
:1050600005701868451C1D60029DAB468B445D466B
:10507000555D05701868451C1D60059DAB468B4449
:105080005D46555D05701868451C1D60069DAB4664
:105090008B445D46555D05701868451C1D60079D75
:1050A000AB468B445D46555D05701868451C1D6018
:1050B000089DAB468B445D46555D05701868451CE0
:1050C0001D60099DAB468B445D46555D05701868B3
:1050D000451C1D600A9DAB468B445D46555D0570C1
:1050E0001868451C1D600B9DAB468B445D46555DA5
:1050F00005701868451C1D600C9DAB468B445D46D1
:10510000555D05701868451C1D600D9DAB468B44B0
:105110005D46555D05701868451C1D600F9D6D1836
:10512000555D05701868451C1D600E9DAB468B448F
:105130005D46555D791805701868515C451C1D6009
:105140000170644500D06BE71A684546511C196030
:1051500016701A68103C944601321A60FF22100043
:1051600090466246E1170840001900121070186856
:10517000090E421C1A60424664182240521A0270FC
:105180001A684F46511C1960102111701A68501C82
:1051900018601170119B1022009330001023109999
:1051A00016F044F93B7B032B00D065E6564978683E
:1051B00018F0DCFA554C54496060B86818F0D6FA1B
:1051C000BB69A060A361FFF799FB05233B7053E621
:1051D000FE21FB89B8690133FB81890518F0C6FA05
:1051E00039698046786818F0C1FA7B69B9687860D7
:1051F000061C181C994618F0B9FA4946041CB860F8
:10520000404618F0B3FA3B49B861201C18F012FB75
:10521000002805D0201C374918F0A5FA041CB860F6
:105220000021201C18F0F0FA002805D0201C31497C
:1052300018F09CFA041CB860301C18F059FBC6B278
:10524000201C18F023FBA02300B25B00984200DA78
:105250003EE14138FF3883B21093284B284A186842
:10526000811DFF31914200D30CE1721CD2B2029237
:10527000B21CD2B20392F21CD2B20492321DD2B24C
:105280000592721DD2B20692B21DD2B20792F21DE1
:10529000D2B2089232000832D2B2099232000932F8
:1052A000D2B20A9232000A32D2B20B9232000B32E0
:1052B000D2B20C9232000C32D2B20D9232000D32C8
:1052C000D2B2914632000E32D2B20E923200109C0F
:1052D0000F32D2B290462200103292B2A0219446F0
:1052E00049008A466146AC464D46064AB9460F918A
:1052F0002F000EE00000A04320F10110600A002002
:10530000F04E00209C5900200000A040B850002022
:1053100018682100544502D34139FF3989B2090286
:10532000451C1D608D19555D013405701868A4B2C7
:10533000451C1D60029DAB468B445D46555D057066
:105340001868451C1D60039DAB468B445D46555D4A
:1053500005701868451C1D60049DAB468B445D4676
:10536000555D05701868451C1D60059DAB468B4456
:105370005D46555D05701868451C1D60069DAB4671
:105380008B445D46555D05701868451C1D60079D82
:10539000AB468B445D46555D05701868451C1D6025
:1053A000089DAB468B445D46555D05701868451CED
:1053B0001D60099DAB468B445D46555D05701868C0
:1053C000451C1D600A9DAB468B445D46555D0570CE
:1053D0001868451C1D600B9DAB468B445D46555DB2
:1053E00005701868451C1D600C9DAB468B445D46DE
:1053F000555D05701868451C1D600D9DAB468B44BE
:105400005D46555D05701868451C1D60CD19555DDC
:1054100005701868451C1D600E9DAB468B445D46AB
:10542000555D414405701868515C451C1D60017054
:105430000F998C4200D06BE71A686546511C1960C1
:1054400016701A68103C944601321A60FF22100050
:1054500090466246E1170840001900121070186863
:10546000090E421C1A60424664182240521A027009
:105470001A684F46511C1960102111701A68501C8F
:10548000186011701A4B30001099009310221023ED
:1054900015F0CCFF1749B86918F0B6F9002800D10B
:1054A000EAE4FC8918F024FE0F210140413120007C
:1054B00017F0EAFD002900D0DEE4042339733B70C5
:1054C000DAE4002801DA4130FF3083B210935AE564
:1054D000002801DA4130FF3083B21093BDE6002886
:1054E00001DA4130FF3083B21093FFF7B1FBC046C1
:1054F00020F10110000070439823F0B54746CE46D6
:105500005B00424C9946424B2600984680B5414F7D
:1055100083B046362378022B31D0032B16D0012BD3
:1055200007D00E34B442F5D103B00CBC9046994676
:10553000F0BD4346A188A07810220093102315F0F7
:1055400075FF0223237000236381EAE76589022344
:10555000E05E01352DB26581053018F075F978608F
:105560000423E05E053018F06FF9B860280018F0E9
:105570006BF9B861FFF7C2F902232370D1E765899F
:1055800001352DB265814D4534DD0023237018F0BF
:10559000AFFD0A23E55E18F0ABFD0F2117F074FD97
:1055A00047318D4201D1032323700A23E55E18F0B1
:1055B0009FFD0F2117F068FD6F318D4201D103234C
:1055C00023700A23E55E18F093FD0F2117F05CFDB0
:1055D00097318D4201D1032323700A23E55E18F031
:1055E00087FD0F2117F050FDB5318D4299D103236E
:1055F000237096E718F07CFD0F2117F045FD293147
:105600008D42C6D103232370C3E7C046C80A0020D9
:1056100020F00110B8500020F0B5C646C60000B515
:105620006C4D331A5B00EB5C040082B0052B3AD85A
:10563000694A9B00D3589F469822331A5B009846CC
:10564000EB185F89520001373FB25F81974200DC5F
:1056500090E0002241466A541B7B012B00D19CE064
:10566000022B20D118F044FD371B7F00EB190A22D2
:105670009B5E984618F03CFD1E2117F005FD793120
:10568000884501D10323EB55341B64002B190A26EE
:105690009E5F18F02DFD1E2117F0F6FCAB318E42F7
:1056A00001D103232B5502B004BC9046F0BD341A3F
:1056B00064002F197B89494A01337B81FB79B988C2
:1056C000013BDBB2FB711B029B18B87810220093E0
:1056D000102315F0ABFEFB79002BE4D102332B55E0
:1056E000E1E7341A3D4B64002E19B188B0781022DE
:1056F0000093102315F09AFE02232B55002373818B
:10570000D1E7341A64002B195A8901325A810022D8
:10571000DA7104232B55C6E7341A64002F197B89EC
:105720002E4A01337B81FB79B9880133DBB2FB71EF
:105730001B029B18B87810220093102315F076FEF8
:10574000FB79032BAFD10223F85E254E053018F00C
:105750007BF870600423F85E053018F075F8B060CF
:105760000A23F85E18F070F8B061FFF7C7F8052358
:105770002B5598E71B7B012B20D0022B00D092E702
:1057800018F0B6FC1E2117F07FFC47318F4200D085
:105790006AE703234246AB5466E718F0A9FC341BC2
:1057A00064002B190A269E5F18F0A2FC462117F010
:1057B0006BFC8D318E4200D075E772E718F098FCD3
:1057C000462117F061FC29318F42E8D1032342467C
:1057D000AB54E4E7180A0020F0E20110202902107F
:1057E000B850002070B56F4C82B02378022B0ED0D9
:1057F000032B00D1B0E0012B00D1A0E0A37B022B52
:1058000065D0032B48D0012B39D002B070BD98234E
:1058100065895B0001352DB265819D4200DDBBE0ED
:1058200018F066FC142117F02FFC33318D4201D1A2
:10583000032323700A23E55E18F05AFC142117F0A5
:1058400023FC5B318D4201D1032323700A23E55EE3
:1058500018F04EFC142117F017FC79318D4201D15C
:10586000032323700A23E55E18F042FC142117F08D
:105870000BFCA1318D42C1D103232370BEE74A4BFB
:10588000618A207C20220093202315F0CFFD022383
:10589000A37300232383B8E7258B1023E05E013533
:1058A0002DB225830D3017F0CFFF404E70601223CC
:1058B000E05E0D3017F0C8FFB0602800083017F028
:1058C000C3FFB061FFF71AF80223A3739DE7982383
:1058D000258B5B0001352DB225839D4257DC18F0E6
:1058E00007FC142117F0D0FB33318D4201D1032383
:1058F000A3731823E55E18F0FBFB142117F0C4FB1B
:105900005B318D4201D10323A3731823E55E18F0A8
:10591000EFFB142117F0B8FB79318D4201D103233D
:10592000A3731823E55E18F0E3FB142117F0ACFB1A
:10593000A1318D4200D068E70323A37365E71A4BBA
:10594000A188A07820220093202315F06FFD022368
:1059500023700023638151E765890223E05E0135EE
:105960002DB265810D3017F06FFF104E706004236B
:10597000E05E0D3017F068FFB0602800083017F0C7
:1059800063FFB061FEF7BAFF0223237036E70023FE
:10599000A37318F0ADFBACE70023237018F0A8FB4D
:1059A00048E7C0461809002020FD0110B85000202B
:1059B000F0B5DE4657464E464546E0B5384F83B013
:1059C000BB697E689B46374D00960423E85E08302D
:1059D00017F03AFF594617F0C6FE17F057FF04B20A
:1059E0000223E85E063017F02FFF311C17F0BBFED4
:1059F00017F04CFF210000B2FDF7C8FABB680400A5
:105A00000193294B203C98461C239A46E333994640
:105A10003030E4B2C6B2BA4423004A4640331340A1
:105A200042465B00D05E17F00FFF8121C90517F0D9
:105A3000B4FEEE21890517F0B0FE42466300051C56
:105A4000D05E17F001FF8121C90517F0A6FEEE21F7
:105A5000890517F0A2FE5246012303E001331C32F0
:105A6000142B10D011780029F8D1DA00D31A00993C
:105A70009B00FA1851600199156191605946506177
:105A800091610122FA541034E4B2A642C4D13D61BE
:105A9000786103B03CBC90469946A246AB46F0BD47
:105AA000B8500020944F002004E50110F0B557468F
:105AB0004E46DE464546E0B52A4F85B07B688020DD
:105AC0000193BB6850240293BB6940000393264BAB
:105AD0009A461E001C2399462533FF339846413BC6
